{
    "contractName": "OSMonetization",
    "abi": [
        {
            "inputs": [],
            "name": "calcWeightedCredit",
            "outputs": [
                {
                    "internalType": "uint256",
                    "name": "",
                    "type": "uint256"
                }
            ],
            "stateMutability": "view",
            "type": "function"
        }
    ],
    "bytecode": "6080604052348015600f57600080fd5b50607780601d6000396000f3fe6080604052348015600f57600080fd5b506004361060285760003560e01c8063a33bf37114602d575b600080fd5b600060405190815260200160405180910390f3fea26469706673582212202965a67f88b1bd67551f6e771a99afdd9e40da70a73f6391d3150b6ee3654b1d64736f6c63430008130033",
    "sourcePath": "c:/Users/hairb/OneDrive/Desktop/Blockchain NM Project/OSMonetization/backend/src/contracts/OSMonetization.sol",
    "compiler": {
        "name": "solc",
        "version": "0.8.19+commit.7dd6d404"
    },
    "functionHashes": {
        "calcWeightedCredit()": "a33bf371"
    },
    "gasEstimates": {
        "creation": {
            "codeDepositCost": "23800",
            "executionCost": "75",
            "totalCost": "23875"
        },
        "external": {
            "calcWeightedCredit()": "146"
        }
    }
}