{
  "contractName": "OSMonetization",
  "abi": [
    {
      "inputs": [],
      "stateMutability": "nonpayable",
      "type": "constructor"
    },
    {
      "anonymous": false,
      "inputs": [
        {
          "indexed": false,
          "internalType": "uint256[][]",
          "name": "result",
          "type": "uint256[][]"
        }
      ],
      "name": "Create2DArray",
      "type": "event"
    },
    {
      "anonymous": false,
      "inputs": [
        {
          "indexed": false,
          "internalType": "uint256[]",
          "name": "credit",
          "type": "uint256[]"
        }
      ],
      "name": "Credit",
      "type": "event"
    },
    {
      "inputs": [
        {
          "internalType": "uint256",
          "name": "",
          "type": "uint256"
        }
      ],
      "name": "_weighted",
      "outputs": [
        {
          "internalType": "uint256",
          "name": "",
          "type": "uint256"
        }
      ],
      "stateMutability": "view",
      "type": "function",
      "constant": true
    },
    {
      "inputs": [
        {
          "internalType": "uint256",
          "name": "",
          "type": "uint256"
        }
      ],
      "name": "id_to_repo",
      "outputs": [
        {
          "internalType": "uint256",
          "name": "repo_id",
          "type": "uint256"
        },
        {
          "internalType": "string",
          "name": "url",
          "type": "string"
        },
        {
          "internalType": "uint256",
          "name": "stage",
          "type": "uint256"
        },
        {
          "internalType": "uint256",
          "name": "num_contributors",
          "type": "uint256"
        }
      ],
      "stateMutability": "view",
      "type": "function",
      "constant": true
    },
    {
      "inputs": [],
      "name": "name",
      "outputs": [
        {
          "internalType": "string",
          "name": "",
          "type": "string"
        }
      ],
      "stateMutability": "view",
      "type": "function",
      "constant": true
    },
    {
      "inputs": [],
      "name": "repo_id",
      "outputs": [
        {
          "internalType": "uint256",
          "name": "",
          "type": "uint256"
        }
      ],
      "stateMutability": "view",
      "type": "function",
      "constant": true
    },
    {
      "inputs": [
        {
          "internalType": "string",
          "name": "",
          "type": "string"
        }
      ],
      "name": "user_length",
      "outputs": [
        {
          "internalType": "uint256",
          "name": "",
          "type": "uint256"
        }
      ],
      "stateMutability": "view",
      "type": "function",
      "constant": true
    },
    {
      "inputs": [
        {
          "internalType": "string",
          "name": "",
          "type": "string"
        },
        {
          "internalType": "uint256",
          "name": "",
          "type": "uint256"
        }
      ],
      "name": "user_repos",
      "outputs": [
        {
          "internalType": "uint256",
          "name": "",
          "type": "uint256"
        }
      ],
      "stateMutability": "view",
      "type": "function",
      "constant": true
    },
    {
      "inputs": [],
      "name": "getName",
      "outputs": [
        {
          "internalType": "string",
          "name": "",
          "type": "string"
        }
      ],
      "stateMutability": "view",
      "type": "function",
      "constant": true
    },
    {
      "inputs": [
        {
          "internalType": "string",
          "name": "_name",
          "type": "string"
        }
      ],
      "name": "setName",
      "outputs": [],
      "stateMutability": "nonpayable",
      "type": "function"
    },
    {
      "inputs": [],
      "name": "getRepoId",
      "outputs": [
        {
          "internalType": "uint256",
          "name": "",
          "type": "uint256"
        }
      ],
      "stateMutability": "view",
      "type": "function",
      "constant": true
    },
    {
      "inputs": [
        {
          "internalType": "uint256",
          "name": "_repo_id",
          "type": "uint256"
        },
        {
          "internalType": "uint256",
          "name": "index",
          "type": "uint256"
        }
      ],
      "name": "getRepoContributor",
      "outputs": [
        {
          "internalType": "string",
          "name": "",
          "type": "string"
        }
      ],
      "stateMutability": "view",
      "type": "function",
      "constant": true
    },
    {
      "inputs": [
        {
          "internalType": "uint256",
          "name": "_repo_id",
          "type": "uint256"
        },
        {
          "internalType": "uint256",
          "name": "index",
          "type": "uint256"
        }
      ],
      "name": "getRepoPercent",
      "outputs": [
        {
          "internalType": "uint256",
          "name": "",
          "type": "uint256"
        }
      ],
      "stateMutability": "view",
      "type": "function",
      "constant": true
    },
    {
      "inputs": [
        {
          "internalType": "string",
          "name": "username",
          "type": "string"
        }
      ],
      "name": "getUserReposLength",
      "outputs": [
        {
          "internalType": "uint256",
          "name": "",
          "type": "uint256"
        }
      ],
      "stateMutability": "view",
      "type": "function",
      "constant": true
    },
    {
      "inputs": [
        {
          "internalType": "string",
          "name": "username",
          "type": "string"
        },
        {
          "internalType": "uint256",
          "name": "index",
          "type": "uint256"
        }
      ],
      "name": "getUserRepo",
      "outputs": [
        {
          "components": [
            {
              "internalType": "uint256",
              "name": "repo_id",
              "type": "uint256"
            },
            {
              "internalType": "string",
              "name": "url",
              "type": "string"
            },
            {
              "internalType": "uint256",
              "name": "stage",
              "type": "uint256"
            },
            {
              "internalType": "uint256",
              "name": "num_contributors",
              "type": "uint256"
            },
            {
              "internalType": "string[]",
              "name": "contributors",
              "type": "string[]"
            },
            {
              "internalType": "uint256[]",
              "name": "percent_stake",
              "type": "uint256[]"
            }
          ],
          "internalType": "struct OSMonetization.Respository",
          "name": "",
          "type": "tuple"
        }
      ],
      "stateMutability": "view",
      "type": "function",
      "constant": true
    },
    {
      "inputs": [
        {
          "internalType": "string",
          "name": "_repositoryURL",
          "type": "string"
        },
        {
          "internalType": "string[]",
          "name": "_names",
          "type": "string[]"
        },
        {
          "internalType": "uint256[]",
          "name": "_commits",
          "type": "uint256[]"
        },
        {
          "internalType": "uint256[]",
          "name": "_lines",
          "type": "uint256[]"
        },
        {
          "internalType": "uint256[]",
          "name": "_workdays",
          "type": "uint256[]"
        },
        {
          "internalType": "uint256",
          "name": "_totalDays",
          "type": "uint256"
        }
      ],
      "name": "createRepo",
      "outputs": [],
      "stateMutability": "nonpayable",
      "type": "function"
    },
    {
      "inputs": [
        {
          "internalType": "string[]",
          "name": "names",
          "type": "string[]"
        },
        {
          "internalType": "uint256[]",
          "name": "commits",
          "type": "uint256[]"
        },
        {
          "internalType": "uint256[]",
          "name": "lines",
          "type": "uint256[]"
        },
        {
          "internalType": "uint256[]",
          "name": "workdays",
          "type": "uint256[]"
        },
        {
          "internalType": "uint256",
          "name": "totalDays",
          "type": "uint256"
        }
      ],
      "name": "calcWeightedCredit",
      "outputs": [
        {
          "internalType": "uint256[]",
          "name": "",
          "type": "uint256[]"
        }
      ],
      "stateMutability": "nonpayable",
      "type": "function"
    },
    {
      "inputs": [
        {
          "internalType": "uint256[]",
          "name": "arr",
          "type": "uint256[]"
        },
        {
          "internalType": "uint256",
          "name": "n",
          "type": "uint256"
        }
      ],
      "name": "Shuffle",
      "outputs": [
        {
          "internalType": "uint256[]",
          "name": "",
          "type": "uint256[]"
        }
      ],
      "stateMutability": "view",
      "type": "function",
      "constant": true
    },
    {
      "inputs": [
        {
          "internalType": "uint256",
          "name": "n",
          "type": "uint256"
        }
      ],
      "name": "Shuffle",
      "outputs": [
        {
          "internalType": "uint256[]",
          "name": "",
          "type": "uint256[]"
        }
      ],
      "stateMutability": "view",
      "type": "function",
      "constant": true
    },
    {
      "inputs": [
        {
          "internalType": "uint256",
          "name": "n",
          "type": "uint256"
        },
        {
          "internalType": "uint256",
          "name": "edit",
          "type": "uint256"
        }
      ],
      "name": "CreateArr",
      "outputs": [
        {
          "internalType": "uint256[][]",
          "name": "",
          "type": "uint256[][]"
        }
      ],
      "stateMutability": "nonpayable",
      "type": "function"
    }
  ],
  "bytecode": "0x608060405260016003553480156200001657600080fd5b506040518060400160405280600f81526020017f4f53204d6f6e6574697a6174696f6e000000000000000000000000000000000081525060049080519060200190620000649291906200006b565b5062000180565b82805462000079906200011b565b90600052602060002090601f0160209004810192826200009d5760008555620000e9565b82601f10620000b857805160ff1916838001178555620000e9565b82800160010185558215620000e9579182015b82811115620000e8578251825591602001919060010190620000cb565b5b509050620000f89190620000fc565b5090565b5b8082111562000117576000816000905550600101620000fd565b5090565b600060028204905060018216806200013457607f821691505b602082108114156200014b576200014a62000151565b5b50919050565b7f4e487b7100000000000000000000000000000000000000000000000000000000600052602260045260246000fd5b612de580620001906000396000f3fe608060405234801561001057600080fd5b50600436106101165760003560e01c8063a2192221116100a2578063c47f002711610071578063c47f002714610346578063cd92b1d814610362578063d8cf235114610392578063e6e05992146103c2578063f2277605146103f257610116565b8063a219222114610286578063a24ae8e6146102b6578063bf931218146102e6578063bfc790db1461031657610116565b806349e338ba116100e957806349e338ba146101b75780635adff71f146101d557806372b6ce58146101f35780637d37d2f51461022657806380dedd741461025657610116565b806306fdde031461011b578063138dd1441461013957806317d7de7c146101695780631a05a54814610187575b600080fd5b61012361040e565b604051610130919061264a565b60405180910390f35b610153600480360381019061014e9190611f75565b61049c565b6040516101609190612606565b60405180910390f35b61017161061a565b60405161017e919061264a565b60405180910390f35b6101a1600480360381019061019c9190611fc9565b6106ac565b6040516101ae91906126ae565b60405180910390f35b6101bf6106d6565b6040516101cc91906126ae565b60405180910390f35b6101dd6106e0565b6040516101ea91906126ae565b60405180910390f35b61020d6004803603810190610208919061215f565b6106e6565b60405161021d94939291906126c9565b60405180910390f35b610240600480360381019061023b9190612188565b61079e565b60405161024d919061264a565b60405180910390f35b610270600480360381019061026b9190612188565b610889565b60405161027d91906125e4565b60405180910390f35b6102a0600480360381019061029b919061215f565b610b33565b6040516102ad9190612606565b60405180910390f35b6102d060048036038101906102cb9190611e9e565b610d95565b6040516102dd9190612606565b60405180910390f35b61030060048036038101906102fb9190611fc9565b6115c7565b60405161030d91906126ae565b60405180910390f35b610330600480360381019061032b919061210b565b6115f5565b60405161033d91906126ae565b60405180910390f35b610360600480360381019061035b9190611fc9565b61163c565b005b61037c6004803603810190610377919061215f565b611656565b60405161038991906126ae565b60405180910390f35b6103ac60048036038101906103a79190612188565b61167a565b6040516103b991906126ae565b60405180910390f35b6103dc60048036038101906103d7919061210b565b6116dd565b6040516103e9919061268c565b60405180910390f35b61040c6004803603810190610407919061200a565b611951565b005b6004805461041b90612bd8565b80601f016020809104026020016040519081016040528092919081815260200182805461044790612bd8565b80156104945780601f1061046957610100808354040283529160200191610494565b820191906000526020600020905b81548152906001019060200180831161047757829003601f168201915b505050505081565b606060005b828110156106105760008182856104b89190612b41565b600184436104c69190612b41565b6104d09190612b41565b4060001c6104de9190612c6d565b6104e891906128ef565b90506000858381518110610525577f4e487b7100000000000000000000000000000000000000000000000000000000600052603260045260246000fd5b60200260200101519050858281518110610568577f4e487b7100000000000000000000000000000000000000000000000000000000600052603260045260246000fd5b60200260200101518684815181106105a9577f4e487b7100000000000000000000000000000000000000000000000000000000600052603260045260246000fd5b602002602001018181525050808683815181106105ef577f4e487b7100000000000000000000000000000000000000000000000000000000600052603260045260246000fd5b6020026020010181815250505050808061060890612c24565b9150506104a1565b5082905092915050565b60606004805461062990612bd8565b80601f016020809104026020016040519081016040528092919081815260200182805461065590612bd8565b80156106a25780601f10610677576101008083540402835291602001916106a2565b820191906000526020600020905b81548152906001019060200180831161068557829003601f168201915b5050505050905090565b600080826040516106bd91906125cd565b9081526020016040518091039020805490509050919050565b6000600354905090565b60035481565b600260205280600052604060002060009150905080600001549080600101805461070f90612bd8565b80601f016020809104026020016040519081016040528092919081815260200182805461073b90612bd8565b80156107885780601f1061075d57610100808354040283529160200191610788565b820191906000526020600020905b81548152906001019060200180831161076b57829003601f168201915b5050505050908060020154908060030154905084565b60606002600084815260200190815260200160002060040182815481106107ee577f4e487b7100000000000000000000000000000000000000000000000000000000600052603260045260246000fd5b90600052602060002001805461080390612bd8565b80601f016020809104026020016040519081016040528092919081815260200182805461082f90612bd8565b801561087c5780601f106108515761010080835404028352916020019161087c565b820191906000526020600020905b81548152906001019060200180831161085f57829003601f168201915b5050505050905092915050565b60608183116108cd576040517f08c379a00000000000000000000000000000000000000000000000000000000081526004016108c49061266c565b60405180910390fd5b60006108d884610b33565b905060008467ffffffffffffffff81111561091c577f4e487b7100000000000000000000000000000000000000000000000000000000600052604160045260246000fd5b60405190808252806020026020018201604052801561094f57816020015b606081526020019060019003908161093a5790505b50905060005b85811015610af05760008567ffffffffffffffff81111561099f577f4e487b7100000000000000000000000000000000000000000000000000000000600052604160045260246000fd5b6040519080825280602002602001820160405280156109cd5781602001602082028036833780820191505090505b50905060005b86811015610a96578488600183866109eb91906128ef565b6109f591906128ef565b6109ff9190612c6d565b81518110610a36577f4e487b7100000000000000000000000000000000000000000000000000000000600052603260045260246000fd5b6020026020010151828281518110610a77577f4e487b7100000000000000000000000000000000000000000000000000000000600052603260045260246000fd5b6020026020010181815250508080610a8e90612c24565b9150506109d3565b5080838381518110610ad1577f4e487b7100000000000000000000000000000000000000000000000000000000600052603260045260246000fd5b6020026020010181905250508080610ae890612c24565b915050610955565b507fa572452aad0f51ab961ffe11eeff713d6eefbf658fca9661200ba65739a1cead81604051610b2091906125e4565b60405180910390a1809250505092915050565b606060008267ffffffffffffffff811115610b77577f4e487b7100000000000000000000000000000000000000000000000000000000600052604160045260246000fd5b604051908082528060200260200182016040528015610ba55781602001602082028036833780820191505090505b50905060005b83811015610c1857600181610bc091906128ef565b828281518110610bf9577f4e487b7100000000000000000000000000000000000000000000000000000000600052603260045260246000fd5b6020026020010181815250508080610c1090612c24565b915050610bab565b5060005b83811015610d8b576000818286610c339190612b41565b60018443610c419190612b41565b610c4b9190612b41565b4060001c610c599190612c6d565b610c6391906128ef565b90506000838381518110610ca0577f4e487b7100000000000000000000000000000000000000000000000000000000600052603260045260246000fd5b60200260200101519050838281518110610ce3577f4e487b7100000000000000000000000000000000000000000000000000000000600052603260045260246000fd5b6020026020010151848481518110610d24577f4e487b7100000000000000000000000000000000000000000000000000000000600052603260045260246000fd5b60200260200101818152505080848381518110610d6a577f4e487b7100000000000000000000000000000000000000000000000000000000600052603260045260246000fd5b60200260200101818152505050508080610d8390612c24565b915050610c1c565b5080915050919050565b606060008060005b8851811015610e5657868181518110610ddf577f4e487b7100000000000000000000000000000000000000000000000000000000600052603260045260246000fd5b602002602001015183610df291906128ef565b9250878181518110610e2d577f4e487b7100000000000000000000000000000000000000000000000000000000600052603260045260246000fd5b602002602001015182610e4091906128ef565b9150600181610e4f91906128ef565b9050610d9d565b5060005b600580549050811015610ec9576005805480610e9f577f4e487b7100000000000000000000000000000000000000000000000000000000600052603160045260246000fd5b60019003818190600052602060002001600090559055600181610ec291906128ef565b9050610e5a565b5060005b600580549050811015610f3857600060058281548110610f16577f4e487b7100000000000000000000000000000000000000000000000000000000600052603260045260246000fd5b9060005260206000200181905550600181610f3191906128ef565b9050610ecd565b5060005b600580549050811015610fab576005805480610f81577f4e487b7100000000000000000000000000000000000000000000000000000000600052603160045260246000fd5b60019003818190600052602060002001600090559055600181610fa491906128ef565b9050610f3c565b5060005b60058054905081101561101e576005805480610ff4577f4e487b7100000000000000000000000000000000000000000000000000000000600052603160045260246000fd5b6001900381819060005260206000200160009055905560018161101791906128ef565b9050610faf565b5060006005905060005b895181101561122b57600089828151811061106c577f4e487b7100000000000000000000000000000000000000000000000000000000600052603260045260246000fd5b6020026020010151905060008983815181106110b1577f4e487b7100000000000000000000000000000000000000000000000000000000600052603260045260246000fd5b6020026020010151905060008984815181106110f6577f4e487b7100000000000000000000000000000000000000000000000000000000600052603260045260246000fd5b60200260200101519050600060648a6064846111129190612ae7565b61111c9190612945565b61112691906128ef565b9050600060648860648761113a9190612ae7565b6111449190612945565b61114e91906128ef565b9050600060648a6064876111629190612ae7565b61116c9190612945565b61117691906128ef565b905060006127108060038461118b91906129c9565b6111959190612945565b6127106003866111a591906129c9565b6111af9190612945565b60646002886111be91906129c9565b6111c89190612945565b6111d29190612ae7565b6111dc9190612ae7565b6111e69190612945565b9050888190806001815401808255809150506001900390600052602060002001600090919091909150555050505050505060018161122491906128ef565b9050611028565b506000805b82805490508110156112a157828181548110611275577f4e487b7100000000000000000000000000000000000000000000000000000000600052603260045260246000fd5b90600052602060002001548261128b91906128ef565b915060018161129a91906128ef565b9050611230565b5060005b82805490508110156113695781620186a08483815481106112ef577f4e487b7100000000000000000000000000000000000000000000000000000000600052603260045260246000fd5b90600052602060002001546113049190612ae7565b61130e9190612945565b838281548110611347577f4e487b7100000000000000000000000000000000000000000000000000000000600052603260045260246000fd5b906000526020600020018190555060018161136291906128ef565b90506112a5565b506000806000846000815481106113a9577f4e487b7100000000000000000000000000000000000000000000000000000000600052603260045260246000fd5b9060005260206000200154905060005b85805490508110156114bf578581815481106113fe577f4e487b7100000000000000000000000000000000000000000000000000000000600052603260045260246000fd5b90600052602060002001548461141491906128ef565b935085818154811061144f577f4e487b7100000000000000000000000000000000000000000000000000000000600052603260045260246000fd5b90600052602060002001548210156114ab5785818154811061149a577f4e487b7100000000000000000000000000000000000000000000000000000000600052603260045260246000fd5b906000526020600020015491508092505b6001816114b891906128ef565b90506113b9565b5082620186a06114cf9190612b41565b858381548110611508577f4e487b7100000000000000000000000000000000000000000000000000000000600052603260045260246000fd5b90600052602060002001600082825461152191906128ef565b9250508190555060008590507fcd428f5167ce4d7d168ad9f62db6e328b048b1f0c767519585b6bf18601d31198160405161155c9190612628565b60405180910390a1808054806020026020016040519081016040528092919081815260200182805480156115af57602002820191906000526020600020905b81548152602001906001019080831161159b575b50505050509850505050505050505095945050505050565b6001818051602081018201805184825260208301602085012081835280955050505050506000915090505481565b600082805160208101820180518482526020830160208501208183528095505050505050818154811061162757600080fd5b90600052602060002001600091509150505481565b8060049080519060200190611652929190611b1a565b5050565b6005818154811061166657600080fd5b906000526020600020016000915090505481565b60006002600084815260200190815260200160002060050182815481106116ca577f4e487b7100000000000000000000000000000000000000000000000000000000600052603260045260246000fd5b9060005260206000200154905092915050565b6116e5611ba0565b600080846040516116f691906125cd565b9081526020016040518091039020838154811061173c577f4e487b7100000000000000000000000000000000000000000000000000000000600052603260045260246000fd5b90600052602060002001549050600260008281526020019081526020016000206040518060c00160405290816000820154815260200160018201805461178190612bd8565b80601f01602080910402602001604051908101604052809291908181526020018280546117ad90612bd8565b80156117fa5780601f106117cf576101008083540402835291602001916117fa565b820191906000526020600020905b8154815290600101906020018083116117dd57829003601f168201915b50505050508152602001600282015481526020016003820154815260200160048201805480602002602001604051908101604052809291908181526020016000905b828210156118e857838290600052602060002001805461185b90612bd8565b80601f016020809104026020016040519081016040528092919081815260200182805461188790612bd8565b80156118d45780601f106118a9576101008083540402835291602001916118d4565b820191906000526020600020905b8154815290600101906020018083116118b757829003601f168201915b50505050508152602001906001019061183c565b5050505081526020016005820180548060200260200160405190810160405280929190818152602001828054801561193f57602002820191906000526020600020905b81548152602001906001019080831161192b575b50505050508152505091505092915050565b835185511461195f57600080fd5b835183511461196d57600080fd5b815183511461197b57600080fd5b600061198a8686868686610d95565b905060006040518060c0016040528060035481526020018981526020016001815260200188518152602001888152602001838152509050806002600060035481526020019081526020016000206000820151816000015560208201518160010190805190602001906119fd929190611b1a565b5060408201518160020155606082015181600301556080820151816004019080519060200190611a2e929190611bd6565b5060a0820151816005019080519060200190611a4b929190611c36565b5090505060005b8751811015611af5576000888281518110611a96577f4e487b7100000000000000000000000000000000000000000000000000000000600052603260045260246000fd5b6020026020010151604051611aab91906125cd565b908152602001604051809103902060035490806001815401808255809150506001900390600052602060002001600090919091909150558080611aed90612c24565b915050611a52565b50600160036000828254611b0991906128ef565b925050819055505050505050505050565b828054611b2690612bd8565b90600052602060002090601f016020900481019282611b485760008555611b8f565b82601f10611b6157805160ff1916838001178555611b8f565b82800160010185558215611b8f579182015b82811115611b8e578251825591602001919060010190611b73565b5b509050611b9c9190611c83565b5090565b6040518060c001604052806000815260200160608152602001600081526020016000815260200160608152602001606081525090565b828054828255906000526020600020908101928215611c25579160200282015b82811115611c24578251829080519060200190611c14929190611b1a565b5091602001919060010190611bf6565b5b509050611c329190611ca0565b5090565b828054828255906000526020600020908101928215611c72579160200282015b82811115611c71578251825591602001919060010190611c56565b5b509050611c7f9190611c83565b5090565b5b80821115611c9c576000816000905550600101611c84565b5090565b5b80821115611cc05760008181611cb79190611cc4565b50600101611ca1565b5090565b508054611cd090612bd8565b6000825580601f10611ce25750611d01565b601f016020900490600052602060002090810190611d009190611c83565b5b50565b6000611d17611d1284612746565b612715565b9050808382526020820190508260005b85811015611d575781358501611d3d8882611e5f565b845260208401935060208301925050600181019050611d27565b5050509392505050565b6000611d74611d6f84612772565b612715565b90508083825260208201905082856020860282011115611d9357600080fd5b60005b85811015611dc35781611da98882611e89565b845260208401935060208301925050600181019050611d96565b5050509392505050565b6000611de0611ddb8461279e565b612715565b905082815260208101848484011115611df857600080fd5b611e03848285612b96565b509392505050565b600082601f830112611e1c57600080fd5b8135611e2c848260208601611d04565b91505092915050565b600082601f830112611e4657600080fd5b8135611e56848260208601611d61565b91505092915050565b600082601f830112611e7057600080fd5b8135611e80848260208601611dcd565b91505092915050565b600081359050611e9881612d98565b92915050565b600080600080600060a08688031215611eb657600080fd5b600086013567ffffffffffffffff811115611ed057600080fd5b611edc88828901611e0b565b955050602086013567ffffffffffffffff811115611ef957600080fd5b611f0588828901611e35565b945050604086013567ffffffffffffffff811115611f2257600080fd5b611f2e88828901611e35565b935050606086013567ffffffffffffffff811115611f4b57600080fd5b611f5788828901611e35565b9250506080611f6888828901611e89565b9150509295509295909350565b60008060408385031215611f8857600080fd5b600083013567ffffffffffffffff811115611fa257600080fd5b611fae85828601611e35565b9250506020611fbf85828601611e89565b9150509250929050565b600060208284031215611fdb57600080fd5b600082013567ffffffffffffffff811115611ff557600080fd5b61200184828501611e5f565b91505092915050565b60008060008060008060c0878903121561202357600080fd5b600087013567ffffffffffffffff81111561203d57600080fd5b61204989828a01611e5f565b965050602087013567ffffffffffffffff81111561206657600080fd5b61207289828a01611e0b565b955050604087013567ffffffffffffffff81111561208f57600080fd5b61209b89828a01611e35565b945050606087013567ffffffffffffffff8111156120b857600080fd5b6120c489828a01611e35565b935050608087013567ffffffffffffffff8111156120e157600080fd5b6120ed89828a01611e35565b92505060a06120fe89828a01611e89565b9150509295509295509295565b6000806040838503121561211e57600080fd5b600083013567ffffffffffffffff81111561213857600080fd5b61214485828601611e5f565b925050602061215585828601611e89565b9150509250929050565b60006020828403121561217157600080fd5b600061217f84828501611e89565b91505092915050565b6000806040838503121561219b57600080fd5b60006121a985828601611e89565b92505060206121ba85828601611e89565b9150509250929050565b60006121d083836122ee565b905092915050565b60006121e4838361240f565b905092915050565b60006121f883836125af565b60208301905092915050565b600061220f82612813565b612219818561287e565b93508360208202850161222b856127ce565b8060005b85811015612267578484038952815161224885826121c4565b94506122538361284a565b925060208a0199505060018101905061222f565b50829750879550505050505092915050565b60006122848261281e565b61228e818561288f565b9350836020820285016122a0856127de565b8060005b858110156122dc57848403895281516122bd85826121d8565b94506122c883612857565b925060208a019950506001810190506122a4565b50829750879550505050505092915050565b60006122f982612829565b61230381856128a0565b935061230e836127ee565b8060005b8381101561233f57815161232688826121ec565b975061233183612864565b925050600181019050612312565b5085935050505092915050565b600061235782612829565b61236181856128b1565b935061236c836127ee565b8060005b8381101561239d57815161238488826121ec565b975061238f83612864565b925050600181019050612370565b5085935050505092915050565b60006123b582612834565b6123bf81856128b1565b93506123ca836127fe565b8060005b83811015612402576123df82612d5a565b6123e988826121ec565b97506123f483612871565b9250506001810190506123ce565b5085935050505092915050565b600061241a8261283f565b61242481856128c2565b9350612434818560208601612ba5565b61243d81612d6d565b840191505092915050565b60006124538261283f565b61245d81856128d3565b935061246d818560208601612ba5565b61247681612d6d565b840191505092915050565b600061248c8261283f565b61249681856128e4565b93506124a6818560208601612ba5565b80840191505092915050565b60006124bf602b836128d3565b91507f4e756d626572206f6620706565722065646974732070657220706572736f6e2060008301527f697320746f6f20686967680000000000000000000000000000000000000000006020830152604082019050919050565b600060c08301600083015161253060008601826125af565b5060208301518482036020860152612548828261240f565b915050604083015161255d60408601826125af565b50606083015161257060608601826125af565b50608083015184820360808601526125888282612279565b91505060a083015184820360a08601526125a282826122ee565b9150508091505092915050565b6125b881612b7f565b82525050565b6125c781612b7f565b82525050565b60006125d98284612481565b915081905092915050565b600060208201905081810360008301526125fe8184612204565b905092915050565b60006020820190508181036000830152612620818461234c565b905092915050565b6000602082019050818103600083015261264281846123aa565b905092915050565b600060208201905081810360008301526126648184612448565b905092915050565b60006020820190508181036000830152612685816124b2565b9050919050565b600060208201905081810360008301526126a68184612518565b905092915050565b60006020820190506126c360008301846125be565b92915050565b60006080820190506126de60008301876125be565b81810360208301526126f08186612448565b90506126ff60408301856125be565b61270c60608301846125be565b95945050505050565b6000604051905081810181811067ffffffffffffffff8211171561273c5761273b612d2b565b5b8060405250919050565b600067ffffffffffffffff82111561276157612760612d2b565b5b602082029050602081019050919050565b600067ffffffffffffffff82111561278d5761278c612d2b565b5b602082029050602081019050919050565b600067ffffffffffffffff8211156127b9576127b8612d2b565b5b601f19601f8301169050602081019050919050565b6000819050602082019050919050565b6000819050602082019050919050565b6000819050602082019050919050565b60008190508160005260206000209050919050565b600081519050919050565b600081519050919050565b600081519050919050565b600081549050919050565b600081519050919050565b6000602082019050919050565b6000602082019050919050565b6000602082019050919050565b6000600182019050919050565b600082825260208201905092915050565b600082825260208201905092915050565b600082825260208201905092915050565b600082825260208201905092915050565b600082825260208201905092915050565b600082825260208201905092915050565b600081905092915050565b60006128fa82612b7f565b915061290583612b7f565b9250827fffffffffffffffffffffffffffffffffffffffffffffffffffffffffffffffff0382111561293a57612939612c9e565b5b828201905092915050565b600061295082612b7f565b915061295b83612b7f565b92508261296b5761296a612ccd565b5b828204905092915050565b6000808291508390505b60018511156129c05780860481111561299c5761299b612c9e565b5b60018516156129ab5780820291505b80810290506129b985612d8b565b9450612980565b94509492505050565b60006129d482612b7f565b91506129df83612b89565b9250612a0c7fffffffffffffffffffffffffffffffffffffffffffffffffffffffffffffffff8484612a14565b905092915050565b600082612a245760019050612ae0565b81612a325760009050612ae0565b8160018114612a485760028114612a5257612a81565b6001915050612ae0565b60ff841115612a6457612a63612c9e565b5b8360020a915084821115612a7b57612a7a612c9e565b5b50612ae0565b5060208310610133831016604e8410600b8410161715612ab65782820a905083811115612ab157612ab0612c9e565b5b612ae0565b612ac38484846001612976565b92509050818404811115612ada57612ad9612c9e565b5b81810290505b9392505050565b6000612af282612b7f565b9150612afd83612b7f565b9250817fffffffffffffffffffffffffffffffffffffffffffffffffffffffffffffffff0483118215151615612b3657612b35612c9e565b5b828202905092915050565b6000612b4c82612b7f565b9150612b5783612b7f565b925082821015612b6a57612b69612c9e565b5b828203905092915050565b6000819050919050565b6000819050919050565b600060ff82169050919050565b82818337600083830152505050565b60005b83811015612bc3578082015181840152602081019050612ba8565b83811115612bd2576000848401525b50505050565b60006002820490506001821680612bf057607f821691505b60208210811415612c0457612c03612cfc565b5b50919050565b6000612c1d612c1883612d7e565b612b75565b9050919050565b6000612c2f82612b7f565b91507fffffffffffffffffffffffffffffffffffffffffffffffffffffffffffffffff821415612c6257612c61612c9e565b5b600182019050919050565b6000612c7882612b7f565b9150612c8383612b7f565b925082612c9357612c92612ccd565b5b828206905092915050565b7f4e487b7100000000000000000000000000000000000000000000000000000000600052601160045260246000fd5b7f4e487b7100000000000000000000000000000000000000000000000000000000600052601260045260246000fd5b7f4e487b7100000000000000000000000000000000000000000000000000000000600052602260045260246000fd5b7f4e487b7100000000000000000000000000000000000000000000000000000000600052604160045260246000fd5b6000612d668254612c0a565b9050919050565b6000601f19601f8301169050919050565b60008160001c9050919050565b60008160011c9050919050565b612da181612b7f565b8114612dac57600080fd5b5056fea2646970667358221220bd90bf4d5e68c5c480d09a0171f21faa73ebff839f9d79d5bbfb6f209f9e421864736f6c63430008000033",
  "immutableReferences": {},
  "source": "// SPDX-License-Identifier: MIT\npragma solidity ^0.8.0;\n\n// https://solidity-by-example.org/\n// Maybe refactor to Rust Later...\n\ncontract OSMonetization {\n    //Put into Getters instead of leaving as public variables\n    mapping(string => uint[]) public user_repos; //user to a list of repositories (id)\n    mapping(string => uint) public user_length;\n    mapping(uint => Respository) public id_to_repo;\n    //mapping(string => uint) public url_to_id; //Github URL to Repository ID\n    uint public repo_id = 1;\n    string public name;\n    /*\n    \n\n    Amit \n\n    Dylan's Function:\n    Input: (User Map, Total Days) {\n        helper function to get amount of people to give credit to\n        Output: Map of people shortlisted and initial percentages\n    }\n\n\n    Jesse's Function:\n    Input: List of all usernames, how many people each person should peer review\n    Output: Map of each person to a list of people they will peer review\n\n    */\n\n    struct Respository {\n        uint repo_id;\n        string url;\n        uint stage;\n        uint num_contributors;\n        string[] contributors;\n        uint[] percent_stake;\n    }\n\n    constructor() public {\n        name = \"OS Monetization\";\n    }\n\n    /*\n    Percent represented as a 5 digit number:\n    78962 -> 78.962%\n    */\n    //NOTE: MASSIVE SECURITY RISK CUZ ITS PUBLIC\n    // function registerUser(string memory _username) public {\n    //     require(bytes(_username).length > 0);\n    //     require(github_to_address[_username] == address(0));\n    //     require(bytes(address_to_github[msg.sender]).length == 0);\n\n    //     github_to_address[_username] = msg.sender;\n    //     address_to_github[msg.sender] = _username;\n    // }\n    function getName() public view returns (string memory) {\n        return name;\n    }\n\n    function setName(string memory _name) public {\n        name = _name;\n    }\n\n    function getRepoId() public view returns (uint) {\n        return repo_id;\n    }\n\n\n    function getRepoContributor(uint _repo_id, uint index) public view returns (string memory) {\n        return id_to_repo[_repo_id].contributors[index];\n\n    }\n\n    function getRepoPercent(uint _repo_id, uint index) public view returns (uint) {\n        return id_to_repo[_repo_id].percent_stake[index];\n\n    }\n\n    function getUserReposLength(string memory username) public view returns (uint) {\n        return user_repos[username].length;\n    }\n\n    function getUserRepo(string memory username, uint index) public view returns (Respository memory) {\n        uint post_index = user_repos[username][index];\n        return id_to_repo[post_index];\n    }\n\n    function createRepo(\n        string memory _repositoryURL,\n        string[] memory _names,\n        uint[] memory _commits,\n        uint[] memory _lines,\n        uint[] memory _workdays,\n        uint _totalDays\n    ) public {\n        //require(bytes(address_to_github[msg.sender]).length != 0);\n        //require(url_to_id[_repositoryURL] == 0);\n        require(_names.length == _commits.length);\n        require(_lines.length == _commits.length);\n        require(_lines.length == _workdays.length);\n\n        uint[] memory _percents = calcWeightedCredit(_names, _commits, _lines, _workdays, _totalDays);\n\n        Respository memory repo = Respository(\n            repo_id,\n            _repositoryURL,\n            1,\n            _names.length,\n            _names,\n            _percents\n        );\n        id_to_repo[repo_id] = repo;\n        //url_to_id[_repositoryURL] = repo_id;\n        for (uint i = 0; i < _names.length; i++) {\n            user_repos[_names[i]].push(repo_id);\n        }\n        repo_id += 1;\n    }\n\n    // function createRepoTest(\n    //     string memory _repositoryURL,\n    //     string[10] memory _users,\n    //     uint[10] memory _percents\n    // ) public {\n    //     require(_users.length == _percents.length);\n\n    //     Respository memory repo = Respository(\n    //         repo_id,\n    //         _repositoryURL,\n    //         1,\n    //         _users.length,\n    //         _users,\n    //         _percents\n    //     );\n    //     id_to_repo[repo_id] = repo;\n    //     for (uint i = 0; i < _users.length; i++) {\n    //         if (bytes(_users[i]).length > 0) {\n    //         uint currIdx = user_length[_users[i]];\n    //         user_repos[_users[i]][currIdx] = (repo_id);\n    //         user_length[_users[i]] = currIdx + 1;\n    //         }\n    //     }\n    //     repo_id += 1;\n    // }\n\n    ///////////////////\n    /* DYLAN'S WORK */\n    //////////////////\n\n    uint[] public _weighted;\n    event Credit(uint[] credit);\n\n    function calcWeightedCredit(\n        string[] memory names,\n        uint[] memory commits,\n        uint[] memory lines,\n        uint[] memory workdays,\n        uint totalDays\n    ) public returns (uint[] memory) {\n        //Calculates total lines and total commits from all developers\n        uint totalLines = 0;\n        uint totalCommits = 0;\n        for (uint i = 0; i < names.length; i += 1) {\n            totalLines += lines[i];\n            totalCommits += commits[i];\n        }\n\n        //Calculates weighted values for each developer\n        for (uint i = 0; i < _weighted.length; i += 1) {\n            _weighted.pop();\n        }\n        for (uint i = 0; i < _weighted.length; i += 1) {\n            _weighted[i] = 0;\n        }\n        for (uint i = 0; i < _weighted.length; i += 1) {\n            _weighted.pop();\n        }\n        for (uint i = 0; i < _weighted.length; i += 1) {\n            _weighted.pop();\n        }\n\n        uint[] storage weighted = _weighted;\n\n        for (uint i = 0; i < names.length; i += 1) {\n            uint currCommits = commits[i];\n            uint currLines = lines[i];\n            uint currDays = workdays[i];\n\n            uint proportionOfDays = ((currDays * 100) / totalDays) + 100;\n            uint proportionOfCommits = ((currCommits * 100) / totalCommits) +\n                100;\n            uint proportionOfLines = ((currLines * 100) / totalLines) + 100;\n\n            uint weightedVal = ((proportionOfDays ** 2 / 100) *\n                (proportionOfCommits ** 3 / 10000) *\n                (proportionOfLines ** 3 / 10000)) / 10000;\n\n            weighted.push(weightedVal);\n        }\n\n        //Calculates proportion for each developer\n        uint totalVal = 0;\n        for (uint i = 0; i < weighted.length; i += 1) {\n            totalVal += weighted[i];\n        }\n        for (uint i = 0; i < weighted.length; i += 1) {\n            weighted[i] = (weighted[i] * 100000) / totalVal;\n        }\n\n        //Finds the developer with the highest contributions and adds extra percentage to their share\n        uint totalPortion = 0;\n        uint maxIndex = 0;\n        uint max = weighted[0];\n        for (uint i = 0; i < weighted.length; i += 1) {\n            totalPortion += weighted[i];\n            if (max < weighted[i]) {\n                max = weighted[i];\n                maxIndex = i;\n            }\n        }\n        weighted[maxIndex] += (100000 - totalPortion);\n\n        //Ouputs the percentages in an unsorted order\n        uint[] storage value = weighted;\n        emit Credit(value);\n        return value;\n    }\n\n    // /////////////////////////////////////////////////////////\n    // /////////////////////////////////////////////////////////\n    // /////////////////////////////////////////////////////////\n\n    function Shuffle(uint n) public view returns (uint[] memory) {\n        uint[] memory arr = new uint[](n);\n\n        for (uint a = 0; a < n; a++) {\n            arr[a] = a + 1;\n        }\n\n        for (uint a = 0; a < n; a++) {\n            //uint swap = randInt(a, n - 1);\n            uint swap = (uint(blockhash(block.number - a - 1)) % (n - a)) + a;\n            uint temp = arr[a];\n            arr[a] = arr[swap];\n            arr[swap] = temp;\n        }\n\n        return arr;\n    }\n\n    function Shuffle(\n        uint[] memory arr,\n        uint n\n    ) public view returns (uint[] memory) {\n        for (uint a = 0; a < n; a++) {\n            //uint swap = randInt(a, n - 1);\n            uint swap = (uint(blockhash(block.number - a - 1)) % (n - a)) + a;\n            uint temp = arr[a];\n            arr[a] = arr[swap];\n            arr[swap] = temp;\n        }\n        return arr;\n    }\n\n    event Create2DArray(uint[][] result);\n\n    function CreateArr(uint n, uint edit) public returns (uint[][] memory) {\n        require(n > edit, \"Number of peer edits per person is too high\");\n        uint[] memory arr = Shuffle(n);\n        uint[][] memory result = new uint[][](n);\n        for (uint a = 0; a < n; a++) {\n            uint[] memory temp = new uint[](edit);\n            for (uint b = 0; b < edit; b++) {\n                temp[b] = arr[(a + b + 1) % n];\n                //temp = Shuffle(temp, edit);\n            }\n\n            result[a] = temp;\n        }\n        emit Create2DArray(result);\n        return result;\n    }\n}",
  "sourcePath": "/Users/amit/FunProjects/OSMonetization/backend/contracts/OSMonetization.sol",
  "compiler": {
    "name": "solc",
    "version": "0.8.0+commit.c7dfd78e.Emscripten.clang"
  },
  "schemaVersion": "3.4.14",
  "updatedAt": "2023-11-30T19:34:51.852Z",
  "networkType": "ethereum",
  "devdoc": {
    "kind": "dev",
    "methods": {},
    "version": 1
  },
  "userdoc": {
    "kind": "user",
    "methods": {},
    "version": 1
  }
}