{
  "contractName": "OSMonetization",
  "abi": [
    {
      "inputs": [],
      "stateMutability": "nonpayable",
      "type": "constructor"
    },
    {
      "inputs": [
        {
          "internalType": "uint256",
          "name": "",
          "type": "uint256"
        }
      ],
      "name": "id_to_repo",
      "outputs": [
        {
          "internalType": "uint256",
          "name": "repo_id",
          "type": "uint256"
        },
        {
          "internalType": "string",
          "name": "url",
          "type": "string"
        },
        {
          "internalType": "uint256",
          "name": "stage",
          "type": "uint256"
        },
        {
          "internalType": "uint256",
          "name": "num_contributors",
          "type": "uint256"
        }
      ],
      "stateMutability": "view",
      "type": "function"
    },
    {
      "inputs": [],
      "name": "name",
      "outputs": [
        {
          "internalType": "string",
          "name": "",
          "type": "string"
        }
      ],
      "stateMutability": "view",
      "type": "function"
    },
    {
      "inputs": [],
      "name": "repo_id",
      "outputs": [
        {
          "internalType": "uint256",
          "name": "",
          "type": "uint256"
        }
      ],
      "stateMutability": "view",
      "type": "function"
    },
    {
      "inputs": [
        {
          "internalType": "string",
          "name": "",
          "type": "string"
        }
      ],
      "name": "user_length",
      "outputs": [
        {
          "internalType": "uint256",
          "name": "",
          "type": "uint256"
        }
      ],
      "stateMutability": "view",
      "type": "function"
    },
    {
      "inputs": [
        {
          "internalType": "string",
          "name": "",
          "type": "string"
        },
        {
          "internalType": "uint256",
          "name": "",
          "type": "uint256"
        }
      ],
      "name": "user_repos",
      "outputs": [
        {
          "internalType": "uint256",
          "name": "",
          "type": "uint256"
        }
      ],
      "stateMutability": "view",
      "type": "function"
    },
    {
      "inputs": [],
      "name": "getName",
      "outputs": [
        {
          "internalType": "string",
          "name": "",
          "type": "string"
        }
      ],
      "stateMutability": "view",
      "type": "function"
    },
    {
      "inputs": [
        {
          "internalType": "string",
          "name": "_name",
          "type": "string"
        }
      ],
      "name": "setName",
      "outputs": [],
      "stateMutability": "nonpayable",
      "type": "function"
    },
    {
      "inputs": [],
      "name": "getRepoId",
      "outputs": [
        {
          "internalType": "uint256",
          "name": "",
          "type": "uint256"
        }
      ],
      "stateMutability": "view",
      "type": "function"
    },
    {
      "inputs": [
        {
          "internalType": "uint256",
          "name": "_repo_id",
          "type": "uint256"
        },
        {
          "internalType": "uint256",
          "name": "index",
          "type": "uint256"
        }
      ],
      "name": "getRepoContributor",
      "outputs": [
        {
          "internalType": "string",
          "name": "",
          "type": "string"
        }
      ],
      "stateMutability": "view",
      "type": "function"
    },
    {
      "inputs": [
        {
          "internalType": "uint256",
          "name": "_repo_id",
          "type": "uint256"
        },
        {
          "internalType": "uint256",
          "name": "index",
          "type": "uint256"
        }
      ],
      "name": "getRepoPercent",
      "outputs": [
        {
          "internalType": "uint256",
          "name": "",
          "type": "uint256"
        }
      ],
      "stateMutability": "view",
      "type": "function"
    },
    {
      "inputs": [
        {
          "internalType": "string",
          "name": "username",
          "type": "string"
        }
      ],
      "name": "getUserReposLength",
      "outputs": [
        {
          "internalType": "uint256",
          "name": "",
          "type": "uint256"
        }
      ],
      "stateMutability": "view",
      "type": "function"
    },
    {
      "inputs": [
        {
          "internalType": "string",
          "name": "username",
          "type": "string"
        },
        {
          "internalType": "uint256",
          "name": "index",
          "type": "uint256"
        }
      ],
      "name": "getUserRepo",
      "outputs": [
        {
          "components": [
            {
              "internalType": "uint256",
              "name": "repo_id",
              "type": "uint256"
            },
            {
              "internalType": "string",
              "name": "url",
              "type": "string"
            },
            {
              "internalType": "uint256",
              "name": "stage",
              "type": "uint256"
            },
            {
              "internalType": "uint256",
              "name": "num_contributors",
              "type": "uint256"
            },
            {
              "internalType": "string[10]",
              "name": "contributors",
              "type": "string[10]"
            },
            {
              "internalType": "uint256[10]",
              "name": "percent_stake",
              "type": "uint256[10]"
            }
          ],
          "internalType": "struct OSMonetization.Respository",
          "name": "",
          "type": "tuple"
        }
      ],
      "stateMutability": "view",
      "type": "function"
    },
    {
      "inputs": [
        {
          "internalType": "string",
          "name": "_repositoryURL",
          "type": "string"
        },
        {
          "internalType": "string[10]",
          "name": "_users",
          "type": "string[10]"
        },
        {
          "internalType": "uint256[10]",
          "name": "_percents",
          "type": "uint256[10]"
        }
      ],
      "name": "createRepoTest",
      "outputs": [],
      "stateMutability": "nonpayable",
      "type": "function"
    }
  ],
  "bytecode": "0x608060405260016003553480156200001657600080fd5b506040518060400160405280600f81526020017f4f53204d6f6e6574697a6174696f6e000000000000000000000000000000000081525060049080519060200190620000649291906200006b565b5062000180565b82805462000079906200011b565b90600052602060002090601f0160209004810192826200009d5760008555620000e9565b82601f10620000b857805160ff1916838001178555620000e9565b82800160010185558215620000e9579182015b82811115620000e8578251825591602001919060010190620000cb565b5b509050620000f89190620000fc565b5090565b5b8082111562000117576000816000905550600101620000fd565b5090565b600060028204905060018216806200013457607f821691505b602082108114156200014b576200014a62000151565b5b50919050565b7f4e487b7100000000000000000000000000000000000000000000000000000000600052602260045260246000fd5b61171c80620001906000396000f3fe608060405234801561001057600080fd5b50600436106100cf5760003560e01c806372b6ce581161008c578063bfc790db11610066578063bfc790db1461022b578063c47f00271461025b578063d8cf235114610277578063e6e05992146102a7576100cf565b806372b6ce58146101985780637d37d2f5146101cb578063bf931218146101fb576100cf565b806306fdde03146100d45780630b2ec75b146100f257806317d7de7c1461010e5780631a05a5481461012c57806349e338ba1461015c5780635adff71f1461017a575b600080fd5b6100dc6102d7565b6040516100e9919061132a565b60405180910390f35b61010c60048036038101906101079190610f90565b610365565b005b61011661061b565b604051610123919061132a565b60405180910390f35b61014660048036038101906101419190610f4f565b6106ad565b604051610153919061136e565b60405180910390f35b6101646106d6565b604051610171919061136e565b60405180910390f35b6101826106e0565b60405161018f919061136e565b60405180910390f35b6101b260048036038101906101ad9190611064565b6106e6565b6040516101c29493929190611389565b60405180910390f35b6101e560048036038101906101e0919061108d565b61079e565b6040516101f2919061132a565b60405180910390f35b61021560048036038101906102109190610f4f565b610880565b604051610222919061136e565b60405180910390f35b61024560048036038101906102409190611010565b6108ae565b604051610252919061136e565b60405180910390f35b61027560048036038101906102709190610f4f565b6108ec565b005b610291600480360381019061028c919061108d565b610906565b60405161029e919061136e565b60405180910390f35b6102c160048036038101906102bc9190611010565b610960565b6040516102ce919061134c565b60405180910390f35b600480546102e4906115b6565b80601f0160208091040260200160405190810160405280929190818152602001828054610310906115b6565b801561035d5780601f106103325761010080835404028352916020019161035d565b820191906000526020600020905b81548152906001019060200180831161034057829003601f168201915b505050505081565b600a801461037257600080fd5b60006040518060c00160405280600354815260200185815260200160018152602001600a8152602001848152602001838152509050806002600060035481526020019081526020016000206000820151816000015560208201518160010190805190602001906103e3929190610ba6565b50604082015181600201556060820151816003015560808201518160040190600a61040f929190610c2c565b5060a082015181600e0190600a610427929190610c7f565b5090505060005b600a8110156105fa5760008482600a8110610472577f4e487b7100000000000000000000000000000000000000000000000000000000600052603260045260246000fd5b60200201515111156105e757600060018583600a81106104bb577f4e487b7100000000000000000000000000000000000000000000000000000000600052603260045260246000fd5b60200201516040516104cd9190611313565b908152602001604051809103902054905060035460008684600a811061051c577f4e487b7100000000000000000000000000000000000000000000000000000000600052603260045260246000fd5b602002015160405161052e9190611313565b90815260200160405180910390208260648110610574577f4e487b7100000000000000000000000000000000000000000000000000000000600052603260045260246000fd5b01819055506001816105869190611514565b60018684600a81106105c1577f4e487b7100000000000000000000000000000000000000000000000000000000600052603260045260246000fd5b60200201516040516105d39190611313565b908152602001604051809103902081905550505b80806105f2906115e8565b91505061042e565b5060016003600082825461060e9190611514565b9250508190555050505050565b60606004805461062a906115b6565b80601f0160208091040260200160405190810160405280929190818152602001828054610656906115b6565b80156106a35780601f10610678576101008083540402835291602001916106a3565b820191906000526020600020905b81548152906001019060200180831161068657829003601f168201915b5050505050905090565b600080826040516106be9190611313565b90815260200160405180910390205060649050919050565b6000600354905090565b60035481565b600260205280600052604060002060009150905080600001549080600101805461070f906115b6565b80601f016020809104026020016040519081016040528092919081815260200182805461073b906115b6565b80156107885780601f1061075d57610100808354040283529160200191610788565b820191906000526020600020905b81548152906001019060200180831161076b57829003601f168201915b5050505050908060020154908060030154905084565b60606002600084815260200190815260200160002060040182600a81106107ee577f4e487b7100000000000000000000000000000000000000000000000000000000600052603260045260246000fd5b0180546107fa906115b6565b80601f0160208091040260200160405190810160405280929190818152602001828054610826906115b6565b80156108735780601f1061084857610100808354040283529160200191610873565b820191906000526020600020905b81548152906001019060200180831161085657829003601f168201915b5050505050905092915050565b6001818051602081018201805184825260208301602085012081835280955050505050506000915090505481565b60008280516020810182018051848252602083016020850120818352809550505050505081606481106108e057600080fd5b01600091509150505481565b8060049080519060200190610902929190610ba6565b5050565b600060026000848152602001908152602001600020600e0182600a8110610956577f4e487b7100000000000000000000000000000000000000000000000000000000600052603260045260246000fd5b0154905092915050565b610968610cbf565b600080846040516109799190611313565b908152602001604051809103902083606481106109bf577f4e487b7100000000000000000000000000000000000000000000000000000000600052603260045260246000fd5b01549050600260008281526020019081526020016000206040518060c0016040529081600082015481526020016001820180546109fb906115b6565b80601f0160208091040260200160405190810160405280929190818152602001828054610a27906115b6565b8015610a745780601f10610a4957610100808354040283529160200191610a74565b820191906000526020600020905b815481529060010190602001808311610a5757829003601f168201915b50505050508152602001600282015481526020016003820154815260200160048201600a80602002604051908101604052809291906000905b82821015610b50578382018054610ac3906115b6565b80601f0160208091040260200160405190810160405280929190818152602001828054610aef906115b6565b8015610b3c5780601f10610b1157610100808354040283529160200191610b3c565b820191906000526020600020905b815481529060010190602001808311610b1f57829003601f168201915b505050505081526020019060010190610aad565b505050508152602001600e8201600a806020026040519081016040528092919082600a8015610b94576020028201915b815481526020019060010190808311610b80575b50505050508152505091505092915050565b828054610bb2906115b6565b90600052602060002090601f016020900481019282610bd45760008555610c1b565b82601f10610bed57805160ff1916838001178555610c1b565b82800160010185558215610c1b579182015b82811115610c1a578251825591602001919060010190610bff565b5b509050610c289190610d01565b5090565b82600a8101928215610c6e579160200282015b82811115610c6d578251829080519060200190610c5d929190610ba6565b5091602001919060010190610c3f565b5b509050610c7b9190610d1e565b5090565b82600a8101928215610cae579160200282015b82811115610cad578251825591602001919060010190610c92565b5b509050610cbb9190610d01565b5090565b6040518060c0016040528060008152602001606081526020016000815260200160008152602001610cee610d42565b8152602001610cfb610d6a565b81525090565b5b80821115610d1a576000816000905550600101610d02565b5090565b5b80821115610d3e5760008181610d359190610d8d565b50600101610d1f565b5090565b604051806101400160405280600a905b6060815260200190600190039081610d525790505090565b604051806101400160405280600a90602082028036833780820191505090505090565b508054610d99906115b6565b6000825580601f10610dab5750610dca565b601f016020900490600052602060002090810190610dc99190610d01565b5b50565b6000610de0610ddb84611406565b6113d5565b9050808260005b85811015610e175781358501610dfd8882610f10565b845260208401935060208301925050600181019050610de7565b5050509392505050565b6000610e34610e2f8461142c565b6113d5565b90508082856020860282011115610e4a57600080fd5b60005b85811015610e7a5781610e608882610f3a565b845260208401935060208301925050600181019050610e4d565b5050509392505050565b6000610e97610e9284611452565b6113d5565b905082815260208101848484011115610eaf57600080fd5b610eba848285611574565b509392505050565b600082601f830112610ed357600080fd5b600a610ee0848285610dcd565b91505092915050565b600082601f830112610efa57600080fd5b600a610f07848285610e21565b91505092915050565b600082601f830112610f2157600080fd5b8135610f31848260208601610e84565b91505092915050565b600081359050610f49816116cf565b92915050565b600060208284031215610f6157600080fd5b600082013567ffffffffffffffff811115610f7b57600080fd5b610f8784828501610f10565b91505092915050565b60008060006101808486031215610fa657600080fd5b600084013567ffffffffffffffff811115610fc057600080fd5b610fcc86828701610f10565b935050602084013567ffffffffffffffff811115610fe957600080fd5b610ff586828701610ec2565b925050604061100686828701610ee9565b9150509250925092565b6000806040838503121561102357600080fd5b600083013567ffffffffffffffff81111561103d57600080fd5b61104985828601610f10565b925050602061105a85828601610f3a565b9150509250929050565b60006020828403121561107657600080fd5b600061108484828501610f3a565b91505092915050565b600080604083850312156110a057600080fd5b60006110ae85828601610f3a565b92505060206110bf85828601610f3a565b9150509250929050565b60006110d583836111c1565b905092915050565b60006110e983836112f5565b60208301905092915050565b600061110082611496565b61110a81856114d1565b93508360208202850161111c85611482565b8060005b85811015611158578484038952815161113985826110c9565b9450611144836114b7565b925060208a01995050600181019050611120565b50829750879550505050505092915050565b611173816114a1565b61117d81846114dc565b92506111888261148c565b8060005b838110156111b95781516111a087826110dd565b96506111ab836114c4565b92505060018101905061118c565b505050505050565b60006111cc826114ac565b6111d681856114e7565b93506111e6818560208601611583565b6111ef816116be565b840191505092915050565b6000611205826114ac565b61120f81856114f8565b935061121f818560208601611583565b611228816116be565b840191505092915050565b600061123e826114ac565b6112488185611509565b9350611258818560208601611583565b80840191505092915050565b60006101e08301600083015161127d60008601826112f5565b506020830151848203602086015261129582826111c1565b91505060408301516112aa60408601826112f5565b5060608301516112bd60608601826112f5565b50608083015184820360808601526112d582826110f5565b91505060a08301516112ea60a086018261116a565b508091505092915050565b6112fe8161156a565b82525050565b61130d8161156a565b82525050565b600061131f8284611233565b915081905092915050565b6000602082019050818103600083015261134481846111fa565b905092915050565b600060208201905081810360008301526113668184611264565b905092915050565b60006020820190506113836000830184611304565b92915050565b600060808201905061139e6000830187611304565b81810360208301526113b081866111fa565b90506113bf6040830185611304565b6113cc6060830184611304565b95945050505050565b6000604051905081810181811067ffffffffffffffff821117156113fc576113fb61168f565b5b8060405250919050565b600067ffffffffffffffff8211156114215761142061168f565b5b602082029050919050565b600067ffffffffffffffff8211156114475761144661168f565b5b602082029050919050565b600067ffffffffffffffff82111561146d5761146c61168f565b5b601f19601f8301169050602081019050919050565b6000819050919050565b6000819050919050565b6000600a9050919050565b6000600a9050919050565b600081519050919050565b6000602082019050919050565b6000602082019050919050565b600081905092915050565b600081905092915050565b600082825260208201905092915050565b600082825260208201905092915050565b600081905092915050565b600061151f8261156a565b915061152a8361156a565b9250827fffffffffffffffffffffffffffffffffffffffffffffffffffffffffffffffff0382111561155f5761155e611631565b5b828201905092915050565b6000819050919050565b82818337600083830152505050565b60005b838110156115a1578082015181840152602081019050611586565b838111156115b0576000848401525b50505050565b600060028204905060018216806115ce57607f821691505b602082108114156115e2576115e1611660565b5b50919050565b60006115f38261156a565b91507fffffffffffffffffffffffffffffffffffffffffffffffffffffffffffffffff82141561162657611625611631565b5b600182019050919050565b7f4e487b7100000000000000000000000000000000000000000000000000000000600052601160045260246000fd5b7f4e487b7100000000000000000000000000000000000000000000000000000000600052602260045260246000fd5b7f4e487b7100000000000000000000000000000000000000000000000000000000600052604160045260246000fd5b6000601f19601f8301169050919050565b6116d88161156a565b81146116e357600080fd5b5056fea2646970667358221220732b9b66c92d51abc530d69c8b51cadff00f5019fca7578abe9257448bdd6e5a64736f6c63430008000033",
  "immutableReferences": {},
  "source": "// SPDX-License-Identifier: MIT\npragma solidity ^0.8.0;\n\n// https://solidity-by-example.org/\n// Maybe refactor to Rust Later...\n\ncontract OSMonetization {\n    //Put into Getters instead of leaving as public variables\n    mapping(string => uint[100]) public user_repos; //user to a list of repositories (id)\n    mapping(string => uint) public user_length;\n    mapping(uint => Respository) public id_to_repo;\n    //mapping(string => uint) public url_to_id; //Github URL to Repository ID\n    uint public repo_id = 1;\n    string public name;\n    /*\n    \n\n    Amit \n\n    Dylan's Function:\n    Input: (User Map, Total Days) {\n        helper function to get amount of people to give credit to\n        Output: Map of people shortlisted and initial percentages\n    }\n\n\n    Jesse's Function:\n    Input: List of all usernames, how many people each person should peer review\n    Output: Map of each person to a list of people they will peer review\n\n    */\n\n    struct Respository {\n        uint repo_id;\n        string url;\n        uint stage;\n        uint num_contributors;\n        string[10] contributors;\n        uint[10] percent_stake;\n    }\n\n    constructor() public {\n        name = \"OS Monetization\";\n    }\n\n    /*\n    Percent represented as a 5 digit number:\n    78962 -> 78.962%\n    */\n    //NOTE: MASSIVE SECURITY RISK CUZ ITS PUBLIC\n    // function registerUser(string memory _username) public {\n    //     require(bytes(_username).length > 0);\n    //     require(github_to_address[_username] == address(0));\n    //     require(bytes(address_to_github[msg.sender]).length == 0);\n\n    //     github_to_address[_username] = msg.sender;\n    //     address_to_github[msg.sender] = _username;\n    // }\n    function getName() public view returns (string memory) {\n        return name;\n    }\n\n    function setName(string memory _name) public {\n        name = _name;\n    }\n\n    function getRepoId() public view returns (uint) {\n        return repo_id;\n    }\n\n\n    function getRepoContributor(uint _repo_id, uint index) public view returns (string memory) {\n        return id_to_repo[_repo_id].contributors[index];\n\n    }\n\n    function getRepoPercent(uint _repo_id, uint index) public view returns (uint) {\n        return id_to_repo[_repo_id].percent_stake[index];\n\n    }\n\n    function getUserReposLength(string memory username) public view returns (uint) {\n        return user_repos[username].length;\n    }\n\n    function getUserRepo(string memory username, uint index) public view returns (Respository memory) {\n        uint post_index = user_repos[username][index];\n        return id_to_repo[post_index];\n    }\n\n    // function createRepo(\n    //     string memory _repositoryURL,\n    //     string[] memory _names,\n    //     uint[] memory _commits,\n    //     uint[] memory _lines,\n    //     uint[] memory _workdays,\n    //     uint _totalDays\n    // ) public {\n    //     //require(bytes(address_to_github[msg.sender]).length != 0);\n    //     //require(url_to_id[_repositoryURL] == 0);\n    //     require(_names.length == _commits.length);\n    //     require(_lines.length == _commits.length);\n    //     require(_lines.length == _workdays.length);\n\n    //     uint[] memory _percents = calcWeightedCredit(_names, _commits, _lines, _workdays, _totalDays);\n\n    //     Respository memory repo = Respository(\n    //         repo_id,\n    //         _repositoryURL,\n    //         1,\n    //         _names.length,\n    //         _names,\n    //         _percents\n    //     );\n    //     id_to_repo[repo_id] = repo;\n    //     //url_to_id[_repositoryURL] = repo_id;\n    //     for (uint i = 0; i < _names.length; i++) {\n    //         user_repos[_names[i]].push(repo_id);\n    //     }\n    //     repo_id += 1;\n    // }\n\n    function createRepoTest(\n        string memory _repositoryURL,\n        string[10] memory _users,\n        uint[10] memory _percents\n    ) public {\n        require(_users.length == _percents.length);\n\n        Respository memory repo = Respository(\n            repo_id,\n            _repositoryURL,\n            1,\n            _users.length,\n            _users,\n            _percents\n        );\n        id_to_repo[repo_id] = repo;\n        for (uint i = 0; i < _users.length; i++) {\n            if (bytes(_users[i]).length > 0) {\n            uint currIdx = user_length[_users[i]];\n            user_repos[_users[i]][currIdx] = (repo_id);\n            user_length[_users[i]] = currIdx + 1;\n            }\n        }\n        repo_id += 1;\n    }\n\n    ///////////////////\n    /* DYLAN'S WORK */\n    //////////////////\n\n    // uint[] public _weighted;\n    // event Credit(uint[] credit);\n\n    // function calcWeightedCredit(\n    //     string[] memory names,\n    //     uint[] memory commits,\n    //     uint[] memory lines,\n    //     uint[] memory workdays,\n    //     uint totalDays\n    // ) public returns (uint[] memory) {\n    //     //Calculates total lines and total commits from all developers\n    //     uint totalLines = 0;\n    //     uint totalCommits = 0;\n    //     for (uint i = 0; i < names.length; i += 1) {\n    //         totalLines += lines[i];\n    //         totalCommits += commits[i];\n    //     }\n\n    //     //Calculates weighted values for each developer\n    //     for (uint i = 0; i < _weighted.length; i += 1) {\n    //         _weighted.pop();\n    //     }\n    //     for (uint i = 0; i < _weighted.length; i += 1) {\n    //         _weighted[i] = 0;\n    //     }\n    //     for (uint i = 0; i < _weighted.length; i += 1) {\n    //         _weighted.pop();\n    //     }\n    //     for (uint i = 0; i < _weighted.length; i += 1) {\n    //         _weighted.pop();\n    //     }\n\n    //     uint[] storage weighted = _weighted;\n\n    //     for (uint i = 0; i < names.length; i += 1) {\n    //         uint currCommits = commits[i];\n    //         uint currLines = lines[i];\n    //         uint currDays = workdays[i];\n\n    //         uint proportionOfDays = ((currDays * 100) / totalDays) + 100;\n    //         uint proportionOfCommits = ((currCommits * 100) / totalCommits) +\n    //             100;\n    //         uint proportionOfLines = ((currLines * 100) / totalLines) + 100;\n\n    //         uint weightedVal = ((proportionOfDays ** 2 / 100) *\n    //             (proportionOfCommits ** 3 / 10000) *\n    //             (proportionOfLines ** 3 / 10000)) / 10000;\n\n    //         weighted.push(weightedVal);\n    //     }\n\n    //     //Calculates proportion for each developer\n    //     uint totalVal = 0;\n    //     for (uint i = 0; i < weighted.length; i += 1) {\n    //         totalVal += weighted[i];\n    //     }\n    //     for (uint i = 0; i < weighted.length; i += 1) {\n    //         weighted[i] = (weighted[i] * 100000) / totalVal;\n    //     }\n\n    //     //Finds the developer with the highest contributions and adds extra percentage to their share\n    //     uint totalPortion = 0;\n    //     uint maxIndex = 0;\n    //     uint max = weighted[0];\n    //     for (uint i = 0; i < weighted.length; i += 1) {\n    //         totalPortion += weighted[i];\n    //         if (max < weighted[i]) {\n    //             max = weighted[i];\n    //             maxIndex = i;\n    //         }\n    //     }\n    //     weighted[maxIndex] += (100000 - totalPortion);\n\n    //     //Ouputs the percentages in an unsorted order\n    //     uint[] storage value = weighted;\n    //     emit Credit(value);\n    //     return value;\n    // }\n\n    // /////////////////////////////////////////////////////////\n    // /////////////////////////////////////////////////////////\n    // /////////////////////////////////////////////////////////\n\n    // function Shuffle(uint n) public view returns (uint[] memory) {\n    //     uint[] memory arr = new uint[](n);\n\n    //     for (uint a = 0; a < n; a++) {\n    //         arr[a] = a + 1;\n    //     }\n\n    //     for (uint a = 0; a < n; a++) {\n    //         //uint swap = randInt(a, n - 1);\n    //         uint swap = (uint(blockhash(block.number - a - 1)) % (n - a)) + a;\n    //         uint temp = arr[a];\n    //         arr[a] = arr[swap];\n    //         arr[swap] = temp;\n    //     }\n\n    //     return arr;\n    // }\n\n    // function Shuffle(\n    //     uint[] memory arr,\n    //     uint n\n    // ) public view returns (uint[] memory) {\n    //     for (uint a = 0; a < n; a++) {\n    //         //uint swap = randInt(a, n - 1);\n    //         uint swap = (uint(blockhash(block.number - a - 1)) % (n - a)) + a;\n    //         uint temp = arr[a];\n    //         arr[a] = arr[swap];\n    //         arr[swap] = temp;\n    //     }\n    //     return arr;\n    // }\n\n    // event Create2DArray(uint[][] result);\n\n    // function CreateArr(uint n, uint edit) public returns (uint[][] memory) {\n    //     require(n > edit, \"Number of peer edits per person is too high\");\n    //     uint[] memory arr = Shuffle(n);\n    //     uint[][] memory result = new uint[][](n);\n    //     for (uint a = 0; a < n; a++) {\n    //         uint[] memory temp = new uint[](edit);\n    //         for (uint b = 0; b < edit; b++) {\n    //             temp[b] = arr[(a + b + 1) % n];\n    //             //temp = Shuffle(temp, edit);\n    //         }\n\n    //         result[a] = temp;\n    //     }\n    //     emit Create2DArray(result);\n    //     return result;\n    // }\n}",
  "sourcePath": "/Users/amit/FunProjects/OSMonetization/backend/src/contracts/OSMonetization.sol",
  "compiler": {
    "name": "solc",
    "version": "0.8.0+commit.c7dfd78e.Emscripten.clang"
  },
  "schemaVersion": "3.4.14",
  "updatedAt": "2023-11-30T16:23:35.877Z",
  "devdoc": {
    "kind": "dev",
    "methods": {},
    "version": 1
  },
  "userdoc": {
    "kind": "user",
    "methods": {},
    "version": 1
  }
}